S01B000050726F6772616D4368617261637465724C43442E73726563D1
S11300000C94E4000C940C010C940C010C940C0161
S11300100C940C010C940C010C940C010C940C0128
S11300200C940C010C940C010C940C010C940C0118
S11300300C940C010C940C010C940C010C940C0108
S11300400C940C010C940C010C940C010C940C01F8
S11300500C940C01E108EA08EA08EA08EA08EA084C
S1130060EA08EA08EA08EA08EA08EA08EA08EA08FC
S1130070EA08EA08EA08EA08EA08EA08EA08EA08EC
S1130080EA08EA08EA08EA08EA08EA08EA08BA080C
S113009030085408EA08CA08EA08EA08EA08EA083C
S11300A0EA08EA08EA08EA08EA08EA08EA08EA08BC
S11300B0D608EA088008EA08EA089C08EA08EA0878
S11300C0EA08EA08EA08EA08EA08EA08EA08AA08DC
S11300D030083B08EA08CA08EA08EA08EA08EA0815
S11300E0EA08EA08EA08EA08EA08EA08EA08EA087C
S11300F0D608EA087208EA08EA088E08E108EA085D
S1130100EA08EA08EA08EA08EA08EA08EA08EA085B
S1130110EA08EA08EA08EA08EA08EA08EA08EA084B
S1130120EA08EA08EA08EA08EA08EA08EA08EA083B
S1130130EA08EA08EA08F30830085308EA08CA0893
S1130140EA08EA08EA08EA08EA08EA08EA08EA081B
S1130150EA08EA08EA08EA08D608EA087F08EA088A
S1130160EA089B08EA08EA08EA08EA08EA08EA084A
S1130170EA08EA08EA08A90830083A08EA08CA08B6
S1130180EA08EA08EA08EA08EA08EA08EA08EA08DB
S1130190EA08EA08EA08EA08D608EA087108EA0858
S11301A0EA088D0841746D656C53747564696F2E2B
S11301B0636F6D000041746D656C53747564696F91
S11301C02E636F6D0000550911241FBECFE5D8E0E2
S11301D0DEBFCDBF10E0A0E6B0E0E6E3F6E102C08A
S11301E005900D92A636B107D9F720E0A6E6B0E057
S11301F001C01D92AC37B207E1F710E0C4EED0E0C5
S113020004C02197FE010E94130BC33ED107C9F716
S11302100E941A090C94190B0C940000FC019BE138
S113022090838AE1818312829383848321E02583EE
S11302309683878322E020879187828723E0238720
S11302409487858724E026879787808B25E0218BF8
S1130250928B838B86E0848B0895FC0164FD12C02D
S1130260A185B0E090962C91909781E090E0038472
S113027002C0880F991F0A94E2F780958223909612
S11302808C9310C0A185B0E090962C91909781E05A
S113029090E0038402C0880F991F0A94E2F7822B2E
S11302A090968C9365FD12C0A485B0E090962C9135
S11302B0909781E090E0068402C0880F991F0A9409
S11302C0E2F78095822390968C9310C0A485B0E0C9
S11302D090962C91909781E090E0068402C0880F5C
S11302E0991F0A94E2F7822B90968C9366FD12C0B4
S11302F0A785B0E090962C91909781E090E00188DA
S113030002C0880F991F0A94E2F780958223909681
S11303108C9310C0A785B0E090962C91909781E0C3
S113032090E0018802C0880F991F0A94E2F7822B9B
S113033090968C93662394F0A289B0E090962C91C9
S1130340909781E090E0048802C0880F991F0A9476
S1130350E2F78095822390968C9310C0A289B0E036
S113036090962C91909781E090E0048802C0880FC9
S1130370991F0A94E2F7822B90968C93A081B0E0A7
S113038090964C91909781E090E09C01028002C08D
S1130390220F331F0A94E2F7242B90962C93A68104
S11303A0B0E090964C9190979C01008402C0220F7B
S11303B0331F0A94E2F7242B90962C93AFE9BFE005
S11303C01197F1F700C00000A681B0E090963C912F
S11303D09097AC01008402C0440F551F0A94E2F7C1
S11303E0242F2095232390962C93A081B0E09096FF
S11303F02C919097028002C0880F991F0A94E2F70B
S11304008095822390968C938FE99FE00197F1F772
S113041000C0000060FD12C0A185B0E090962C9150
S1130420909781E090E0038402C0880F991F0A949A
S1130430E2F78095822390968C9310C0A185B0E05A
S113044090962C91909781E090E0038402C0880FED
S1130450991F0A94E2F7822B90968C9361FD12C047
S1130460A485B0E090962C91909781E090E006846A
S113047002C0880F991F0A94E2F780958223909610
S11304808C9310C0A485B0E090962C91909781E055
S113049090E0068402C0880F991F0A94E2F7822B29
S11304A090968C9362FD12C0A785B0E090962C9133
S11304B0909781E090E0018802C0880F991F0A9408
S11304C0E2F78095822390968C9310C0A785B0E0C4
S11304D090962C91909781E090E0018802C0880F5B
S11304E0991F0A94E2F7822B90968C9363FD12C0B5
S11304F0A289B0E090962C91909781E090E00488D6
S113050002C0880F991F0A94E2F78095822390967F
S11305108C9310C0A289B0E090962C91909781E0C2
S113052090E0048802C0880F991F0A94E2F7822B96
S113053090968C93A081B0E090964C91909781E036
S113054090E09C01028002C0220F331F0A94E2F75C
S1130550242B90962C93A681B0E090964C91909782
S11305609C01008402C0220F331F0A94E2F7242B5B
S113057090962C93AFE9BFE01197F1F700C000000B
S1130580A681B0E090963C919097AC01008402C0A3
S1130590440F551F0A94E2F7242F209523239096A5
S11305A02C93A081B0E090962C919097028002C089
S11305B0880F991F0A94E2F78095822390968C9372
S11305C08FE99FE00197F1F700C0000008950F93B1
S11305D01F93CF93DF93EB016881662341F08C0175
S11305E02196C8010E942D0169916111FACFDF9112
S11305F0CF911F910F910895FC0164FD12C0A18554
S1130600B0E090962C91909781E090E0038402C032
S1130610880F991F0A94E2F78095822390968C9311
S113062010C0A185B0E090962C91909781E090E065
S1130630038402C0880F991F0A94E2F7822B9096D4
S11306408C9365FD12C0A485B0E090962C91909790
S113065081E090E0068402C0880F991F0A94E2F7B3
S11306608095822390968C9310C0A485B0E09096D8
S11306702C91909781E090E0068402C0880F991F26
S11306800A94E2F7822B90968C9366FD12C0A7859C
S1130690B0E090962C91909781E090E0018802C0A0
S11306A0880F991F0A94E2F78095822390968C9381
S11306B010C0A785B0E090962C91909781E090E0CF
S11306C0018802C0880F991F0A94E2F7822B909642
S11306D08C93662394F0A289B0E090962C91909725
S11306E081E090E0048802C0880F991F0A94E2F721
S11306F08095822390968C9310C0A289B0E0909646
S11307002C91909781E090E0048802C0880F991F93
S11307100A94E2F7822B90968C93A681B0E090968F
S11307204C91909781E090E09C01008402C0220FDC
S1130730331F0A94E2F7242B90962C93AFE9BFE081
S11307401197F1F700C00000A681B0E090962C91BB
S11307509097008402C0880F991F0A94E2F780954D
S1130760822390968C938FE99FE00197F1F700C064
S1130770000060FD12C0A185B0E090962C91909786
S113078081E090E0038402C0880F991F0A94E2F785
S11307908095822390968C9310C0A185B0E09096AA
S11307A02C91909781E090E0038402C0880F991FF8
S11307B00A94E2F7822B90968C9361FD12C0A48573
S11307C0B0E090962C91909781E090E0068402C06E
S11307D0880F991F0A94E2F78095822390968C9350
S11307E010C0A485B0E090962C91909781E090E0A1
S11307F0068402C0880F991F0A94E2F7822B909610
S11308008C9362FD12C0A785B0E090962C919097CE
S113081081E090E0018802C0880F991F0A94E2F7F2
S11308208095822390968C9310C0A785B0E0909613
S11308302C91909781E090E0018802C0880F991F65
S11308400A94E2F7822B90968C9363FD12C0A289DE
S1130850B0E090962C91909781E090E0048802C0DB
S1130860880F991F0A94E2F78095822390968C93BF
S113087010C0A289B0E090962C91909781E090E00E
S1130880048802C0880F991F0A94E2F7822B90967D
S11308908C93A681B0E090964C91909781E090E083
S11308A09C01008402C0220F331F0A94E2F7242B18
S11308B090962C93AFE9BFE01197F1F700C00000C8
S11308C0A681B0E090962C919097008402C0880F86
S11308D0991F0A94E2F78095822390968C938FE96E
S11308E09FE00197F1F700C00000089561E00E94C5
S11308F0FC028FE99FE00197F1F700C00000089522
S1130900423031F0433031F0413029F4605C03C0AF
S11309106C5E01C06C5A60680E94FC028FE99FE023
S11309200197F1F700C000000895EF92FF920F9332
S11309301F93CF937C018B01642F422F0E9480046C
S1130940B801F8018491882371F0C0E0FB0164913F
S1130950C7010E942D01CF5FB8016C0F711DFB010F
S113096084918111F3CF8FE99FE00197F1F700C0E3
S11309700000CF911F910F91FF90EF900895CF93B6
S1130980DF93EC018FE59AEE0197F1F700C00000C8
S1130990E985F0E030A181E090E0AC010B8402C075
S11309A0440F551F0A94E2F7242F2095232320A3F4
S11309B0EC85F0E030A1AC010E8402C0440F551F59
S11309C00A94E2F7242F2095232320A3EF85F0E057
S11309D030A1AC01098802C0440F551F0A94E2F704
S11309E0242F2095232320A3EA89F0E030A1AC0131
S11309F00C8802C0440F551F0A94E2F7242F209557
S1130A00232320A3EE81F0E030A1AC01088402C0CE
S1130A10440F551F0A94E2F7242F2095232320A383
S1130A20EA85F0E040A19C010B8402C0220F331F31
S1130A300A94E2F7242B20A3ED85F0E040A19C0169
S1130A400E8402C0220F331F0A94E2F7242B20A342
S1130A50E889F0E040A19C01098802C0220F331FFD
S1130A600A94E2F7242B20A3EB89F0E040A19C0137
S1130A700C8802C0220F331F0A94E2F7242B20A310
S1130A80EF81F0E040A19C01088402C0220F331FD3
S1130A900A94E2F7242B20A3E981F0E040A19C0111
S1130AA00A8002C0220F331F0A94E2F7242B20A3EA
S1130AB0EC81F0E040A19C010D8002C0220F331FA5
S1130AC00A94E2F7242B20A3E985F0E040A19C01DD
S1130AD00B8402C0220F331F0A94E2F7242B20A3B5
S1130AE0EC85F0E040A19C010E8402C0220F331F6C
S1130AF00A94E2F7242B20A3EF85F0E030A1AC01A7
S1130B00098802C0440F551F0A94E2F7242F209548
S1130B10232320A3EA89F0E030A1AC010C8802C0B1
S1130B20440F551F0A94E2F7242F2095232320A372
S1130B30EE81F0E040A19C01088402C0220F331F23
S1130B400A94E2F7242B20A3E881F0E030A1AC0161
S1130B500A8002C0440F551F0A94E2F7242F2095FF
S1130B60232320A3EB81F0E030A1AC010D8002C06F
S1130B70440F551F0A94E2F7242F2095232320A322
S1130B80EFE9FFE03197F1F700C00000EE81F0E0FB
S1130B9030A1AC01088402C0440F551F0A94E2F747
S1130BA0242F2095232320A3EFE9FFE03197F1F7C9
S1130BB000C00000E985F0E040A19C010B8402C064
S1130BC0220F331F0A94E2F7242B20A3EC85F0E0D4
S1130BD040A19C010E8402C0220F331F0A94E2F745
S1130BE0242B20A3EF85F0E030A1AC01098802C0DA
S1130BF0440F551F0A94E2F7242F2095232320A3A2
S1130C00EA89F0E030A1AC010C8802C0440F551F02
S1130C100A94E2F7242F2095232320A3EE81F0E009
S1130C2040A19C01088402C0220F331F0A94E2F7FA
S1130C30242B20A3E881F0E030A1AC010A8002C09B
S1130C40440F551F0A94E2F7242F2095232320A351
S1130C50EB81F0E030A1AC010D8002C0440F551FC0
S1130C600A94E2F7242F2095232320A3EFE9FFE041
S1130C703197F1F700C00000EE81F0E030A1AC0143
S1130C80088402C0440F551F0A94E2F7242F2095CC
S1130C90232320A3EFE9FFE03197F1F700C0000020
S1130CA0E985F0E030A1AC010B8402C0440F551F6C
S1130CB00A94E2F7242F2095232320A3EC85F0E067
S1130CC040A19C010E8402C0220F331F0A94E2F754
S1130CD0242B20A3EF85F0E030A1AC01098802C0E9
S1130CE0440F551F0A94E2F7242F2095232320A3B1
S1130CF0EA89F0E030A1AC010C8802C0440F551F12
S1130D000A94E2F7242F2095232320A3EE81F0E018
S1130D1040A19C01088402C0220F331F0A94E2F709
S1130D20242B20A3E881F0E030A1AC010A8002C0AA
S1130D30440F551F0A94E2F7242F2095232320A360
S1130D40EB81F0E030A1AC010D8002C0440F551FCF
S1130D500A94E2F7242F2095232320A3EFE9FFE050
S1130D603197F1F700C00000EE81F0E020A1088483
S1130D7002C0880F991F0A94E2F78095822380A30A
S1130D808FE99FE00197F1F700C0000068E2CE010F
S1130D900E94FC026CE0CE010E94FC02CE010E9483
S1130DA0760420E040E065EB71E0CE010E949504FA
S1130DB09FEFE3EDF0E39150E040F040E1F700C035
S1130DC00000DF91CF9108952F923F924F925F924E
S1130DD06F927F928F929F92AF92BF92CF92DF9247
S1130DE0EF92FF920F931F93CF93DF93CDB7DEB7AC
S1130DF02A970FB6F894DEBF0FBECDBF5C01662EF6
S1130E0069017A0122E0621326C0002309F476C046
S1130E1088248394912C11E0712C8FEF800FF401BE
S1130E2002C0EE0FFF1F8A95E2F7CF01092E000CD6
S1130E30AA0BBB0B8C219D21AE21BF21612F892BD5
S1130E408A2B8B2B09F4672D605DC5010E942D014F
S1130E50015019F753C0C114D104E104F10419F08D
S1130E60011111C04BC0002309F448C010E003C0B5
S1130E701A3009F443C060E3C5010E942D011F5FCD
S1130E800113F6CF3BC09E012F5F3F4F490110E095
S1130E90262E312C412C512CC114D104E104F1042F
S1130EA089F07C2CC701B601A20191010E94F10ACC
S1130EB0C22ED32EE42EF52E629E70181124F40156
S1130EC0708208C00B3020F01123C1F0012F08C03C
S1130ED0F40110821F5FFFEF8F1A9F0A0113DCCF0A
S1130EE0FE01E00FF11D60816A3010F0695C01C001
S1130EF0605DC5010E942D01015091F72A960FB63D
S1130F00F894DEBF0FBECDBFDF91CF911F910F913B
S1130F10FF90EF90DF90CF90BF90AF909F908F9015
S1130F207F906F905F904F903F902F9008958F9295
S1130F309F92AF92BF92CF92DF92EF92FF920F9364
S1130F40CF93DF93EC016A017B01CB01BA010E94CC
S1130F50C7094B015C010FEF9B01AC016AE0CE01B4
S1130F600E94E4066EE2CE010E942D01C501B40187
S1130F700E94F6099B01AC01C701B6010E945A09FF
S1130F8020E034E244E759E40E94840A0E94C7093D
S1130F909B01AC016AE0CE010E94E406DF91CF918F
S1130FA00F91FF90EF90DF90CF90BF90AF909F9004
S1130FB08F9008953F924F925F926F927F928F929B
S1130FC09F92AF92BF92CF92DF92EF92FF920F93D4
S1130FD01F93CF93DF93CDB7DEB7EC88FD880E89DE
S1130FE01F89498D688DC7010E9480045E018AE1D2
S1130FF0A80EB11CD8016C91662309F409C1882498
S11310008A946894332433F8912C653209F0DEC055
S11310106801BFEFCB1ADB0AD8011196EC91119746
S113102080ED8E0F8A3008F0E8C01296092D000F6B
S1131030802F880F880F080F00530E0F6D01ED915C
S113104080ED8E0F8A3098F38E2F90E0FC01B597D7
S1131050E435F10508F0BEC0E65DFF4F0C94130BB8
S113106085010E5F1F4FF5016081C7010E942D01AC
S11310705801B0C0082DF50160807180F2E0AF0E18
S1131080B11C77203CF47194619471086DE2C7013E
S11310900E942D019301770C440B550B6AE0C701A4
S11310A00E94E40697C0082DF501408051806280BB
S11310B0738084E0A80EB11C772064F4709460946B
S11310C050944094411C511C611C711C6DE2C70179
S11310D00E942D01A30192016AE0C7010E94E40667
S11310E079C0082DF50120813181A2E0AA0EB11C3E
S11310F040E050E06AE0C7010E94E4066BC0082D9E
S1131100F5012081318142815381B4E0AB0EB11CE1
S11311106AE0C7010E94E4065DC0082DF501208144
S11311203181E2E0AE0EB11C40E050E060E1C70165
S11311300E94E4064FC0082DF501208131814281CF
S11311405381F4E0AF0EB11C60E1C7010E94E406D4
S113115041C0082DF5012081318182E0A80EB11C27
S1131160083008F0032D40E050E062E0C7010E941F
S1131170E40630C0F5012081318142815381A4E02D
S1131180AA0EB11C0F3F09F400E262E0C7010E94FD
S1131190E40620C0F5014081518162817381B4E08D
S11311A0AB0EB11CC7010E94970714C085010E5FE6
S11311B01F4FF50160817181C7010E94E702580148
S11311C009C065E2C7010E942D0104C0C7010E9445
S11311D02D01680186010F5F1F4FD60111966C9196
S11311E0611113CF15C0F5012081318142815381F2
S11311F0B4E0AB0EB11C00E2C8CF8E2F90E0FC012E
S1131200B597E435F10530F7E258FF4F0C94130B12
S1131210DF91CF911F910F91FF90EF90DF90CF90CE
S1131220BF90AF909F908F907F906F905F904F9002
S11312303F9008952FEF81EE94E02150804090403C
S1131240E1F700C0000086E690E00E94BF0486E655
S113125090E00E94760420E040E064EA71E086E6D3
S113126090E00E9495042FEF87EA91E62150804098
S11312709040E1F700C000001F928AE08F9381E064
S11312808F931F9280E690E09F938F9386E690E081
S11312909F938F930E94DA078DB79EB708960FB677
S11312A0F8949EBF0FBE8DBFFFCF86E690E00E94EC
S11312B00E0108955058BB27AA270E9472090C9466
S11312C04A0A0E943C0A38F00E94430A20F039F48A
S11312D09F3F19F426F40C94390A0EF4E095E7FBC9
S11312E00C94330AE92F0E945B0A58F3BA17620779
S11312F073078407950720F079F4A6F50C947D0A0A
S11313000EF4E0950B2EBA2FA02D0B01B90190011C
S11313100C01CA01A0011124FF27591B99F0593F60
S113132050F4503E68F11A16F040A22F232F342FA8
S11313304427585FF3CF469537952795A795F040F6
S11313405395C9F77EF41F16BA0B620B730B840B0B
S1131350BAF09150A1F0FF0FBB1F661F771F881FC3
S1131360C2F70EC0BA0F621F731F841F48F487951B
S113137077956795B795F7959E3F08F0B0CF93950D
S1131380880F08F09927EE0F9795879508950E9486
S1131390630A88F09F5798F0B92F9927B751B0F096
S11313A0E1F0660F771F881F991F1AF0BA95C9F7E5
S11313B014C0B13091F00E947D0AB1E008950C94FC
S11313C07D0A672F782F8827B85F39F0B93FCCF3AF
S11313D0869577956795B395D9F73EF49095809562
S11313E0709561957F4F8F4F9F4F0895E89409C082
S11313F097FB3EF490958095709561957F4F8F4F44
S11314009F4F9923A9F0F92F96E9BB279395F69559
S1131410879577956795B795F111F8CFFAF4BB0FD7
S113142011F460FF1BC06F5F7F4F8F4F9F4F16C03B
S1131430882311F096E911C0772321F09EE8872FC5
S1131440762F05C0662371F096E8862F70E060E081
S11314502AF09A95660F771F881FDAF7880F9695FA
S1131460879597F9089597F99F6780E870E060E0A1
S113147008959FEF80EC089500240A941616170629
S113148018060906089500240A9412161306140671
S113149005060895092E0394000C11F4882352F0D4
S11314A0BB0F40F4BF2B11F460FF04C06F5F7F4F8C
S11314B08F4F9F4F089557FD9058440F551F59F073
S11314C05F3F71F04795880F97FB991F61F09F3F2D
S11314D079F087950895121613061406551FF2CF56
S11314E04695F1DF08C0161617061806991FF1CFA6
S11314F086957105610508940895E894BB276627CD
S11315007727CB0197F908950E94970A0C944A0A09
S11315100E943C0A38F00E94430A20F0952311F0FF
S11315200C94330A0C94390A11240C947E0A0E94F8
S11315305B0A70F3959FC1F3950F50E0551F629FAE
S1131540F001729FBB27F00DB11D639FAA27F00D18
S1131550B11DAA1F649F6627B00DA11D661F829F3F
S11315602227B00DA11D621F739FB00DA11D621F24
S1131570839FA00D611D221F749F3327A00D611D41
S1131580231F849F600D211D822F762F6A2F112423
S11315909F5750409AF0F1F088234AF0EE0FFF1F56
S11315A0BB1F661F771F881F91505040A9F79E3FAD
S11315B0510580F00C94330A0C947E0A5F3FE4F3E7
S11315C0983ED4F3869577956795B795F795E79503
S11315D09F5FC1F7FE2B880F911D9695879597F90C
S11315E00895A1E21A2EAA1BBB1BFD010DC0AA1F60
S11315F0BB1FEE1FFF1FA217B307E407F50720F078
S1131600A21BB30BE40BF50B661F771F881F991FF2
S11316101A9469F760957095809590959B01AC013B
S1131620BD01CF010895EE0FFF1F0590F491E02D49
S10916300994F894FFCFB9
S109163648692025640050
S9030000FC
