:100000000C947B000C94A3000C94A3000C94A3000C
:100010000C94A3000C94A3000C94A3000C94A300D4
:100020000C94A3000C94A3000C94A3000C94A300C4
:100030000C94A3000C94A3000C94A3000C94A300B4
:100040000C94A3000C94A3000C94A3000C94A300A4
:100050000C94A300204C6F6164696E67202E2E2ED5
:1000600020000041746D656C53747564696F2E6374
:100070006F6D00001F1F1F00000000000000000047
:10008000001F1F1F1F1F000000001F1F0000010393
:100090000301000000001018181000001F001F00CE
:1000A00010001F0010001F001F001F001F00100085
:1000B0001F001F00001F000000001F00001F101085
:1000C00010101F00001F181818181F00001F1C1CFC
:1000D0001C1C1F00001F1E1E1E1E1F00001F1F1FB6
:1000E0001F1F1F0003070F1F0F070300181CFE7FB1
:1000F000FE1C1800370B11241FBECFE5D8E0DEBF71
:10010000CDBF10E0A0E6B0E0EAE3F7E102C0059061
:100110000D92AA38B107D9F720E0AAE8B0E001C0F3
:100120001D92A03AB207E1F710E0CBE7D0E004C09F
:100130002197FE010E94720BCA37D107C9F70E94AE
:10014000B80A0C949B0B0C940000FC019BE190837B
:100150008AE1818312829383848321E025839683BD
:10016000878322E020879187828723E023879487F3
:10017000858724E026879787808B25E0218B928BCB
:10018000838B86E0848B0895FC0164FD12C0A185F9
:10019000B0E090962C91909781E090E0038402C0AB
:1001A000880F991F0A94E2F78095822390968C938A
:1001B00010C0A185B0E090962C91909781E090E0DE
:1001C000038402C0880F991F0A94E2F7822B90964D
:1001D0008C9365FD12C0A485B0E090962C91909709
:1001E00081E090E0068402C0880F991F0A94E2F72C
:1001F0008095822390968C9310C0A485B0E0909651
:100200002C91909781E090E0068402C0880F991F9E
:100210000A94E2F7822B90968C9366FD12C0A78514
:10022000B0E090962C91909781E090E0018802C018
:10023000880F991F0A94E2F78095822390968C93F9
:1002400010C0A785B0E090962C91909781E090E047
:10025000018802C0880F991F0A94E2F7822B9096BA
:100260008C93662394F0A289B0E090962C9190979D
:1002700081E090E0048802C0880F991F0A94E2F799
:100280008095822390968C9310C0A289B0E09096BE
:100290002C91909781E090E0048802C0880F991F0C
:1002A0000A94E2F7822B90968C93A081B0E090960E
:1002B0004C91909781E090E09C01028002C0220F57
:1002C000331F0A94E2F7242B90962C93A681B0E07A
:1002D00090964C9190979C01008402C0220F331F8E
:1002E0000A94E2F7242B90962C93AFECB7E0119789
:1002F000F1F700C00000A681B0E090963C91909785
:10030000AC01008402C0440F551F0A94E2F7242F69
:100310002095232390962C93A081B0E090962C9169
:100320009097028002C0880F991F0A94E2F7809587
:10033000822390968C938FEC97E00197F1F700C0A1
:10034000000060FD12C0A185B0E090962C919097BE
:1003500081E090E0038402C0880F991F0A94E2F7BD
:100360008095822390968C9310C0A185B0E09096E2
:100370002C91909781E090E0038402C0880F991F30
:100380000A94E2F7822B90968C9361FD12C0A485AB
:10039000B0E090962C91909781E090E0068402C0A6
:1003A000880F991F0A94E2F78095822390968C9388
:1003B00010C0A485B0E090962C91909781E090E0D9
:1003C000068402C0880F991F0A94E2F7822B909648
:1003D0008C9362FD12C0A785B0E090962C91909707
:1003E00081E090E0018802C0880F991F0A94E2F72B
:1003F0008095822390968C9310C0A785B0E090964C
:100400002C91909781E090E0018802C0880F991F9D
:100410000A94E2F7822B90968C9363FD12C0A28916
:10042000B0E090962C91909781E090E0048802C013
:10043000880F991F0A94E2F78095822390968C93F7
:1004400010C0A289B0E090962C91909781E090E046
:10045000048802C0880F991F0A94E2F7822B9096B5
:100460008C93A081B0E090964C91909781E090E0C1
:100470009C01028002C0220F331F0A94E2F7242B52
:1004800090962C93A681B0E090964C9190979C0109
:10049000008402C0220F331F0A94E2F7242B9096A7
:1004A0002C93AFECB7E01197F1F700C00000A681E4
:1004B000B0E090963C919097AC01008402C0440F4C
:1004C000551F0A94E2F7242F2095232390962C930E
:1004D000A081B0E090962C919097028002C0880F86
:1004E000991F0A94E2F78095822390968C938FEC63
:1004F00097E00197F1F700C000000895EF92FF9296
:100500000F931F93CF93DF9361157105C1F04423BF
:1005100081F07C01EB014150042F10E00F5F1F4F71
:10052000060F171F6991C7010E94C400C017D107A9
:10053000C9F78FEC97E00197F1F700C00000DF9159
:10054000CF911F910F91FF90EF900895FC0164FDF2
:1005500012C0A185B0E090962C91909781E090E038
:10056000038402C0880F991F0A94E2F780958223C2
:1005700090968C9310C0A185B0E090962C919097A6
:1005800081E090E0038402C0880F991F0A94E2F78B
:10059000822B90968C9365FD12C0A485B0E0909656
:1005A0002C91909781E090E0068402C0880F991FFB
:1005B0000A94E2F78095822390968C9310C0A485CC
:1005C000B0E090962C91909781E090E0068402C074
:1005D000880F991F0A94E2F7822B90968C9366FD00
:1005E00012C0A785B0E090962C91909781E090E0A2
:1005F000018802C0880F991F0A94E2F78095822330
:1006000090968C9310C0A785B0E090962C9190970F
:1006100081E090E0018802C0880F991F0A94E2F7F8
:10062000822B90968C93662394F0A289B0E09096EA
:100630002C91909781E090E0048802C0880F991F68
:100640000A94E2F78095822390968C9310C0A28939
:10065000B0E090962C91909781E090E0048802C0E1
:10066000880F991F0A94E2F7822B90968C93A681AB
:10067000B0E090964C91909781E090E09C010084CE
:1006800002C0220F331F0A94E2F7242B90962C937A
:10069000AFECB7E01197F1F700C00000A681B0E021
:1006A00090962C919097008402C0880F991F0A940D
:1006B000E2F78095822390968C938FEC97E00197D8
:1006C000F1F700C0000060FD12C0A185B0E0909677
:1006D0002C91909781E090E0038402C0880F991FCD
:1006E0000A94E2F78095822390968C9310C0A1859E
:1006F000B0E090962C91909781E090E0038402C046
:10070000880F991F0A94E2F7822B90968C9361FDD3
:1007100012C0A485B0E090962C91909781E090E073
:10072000068402C0880F991F0A94E2F780958223FD
:1007300090968C9310C0A485B0E090962C919097E1
:1007400081E090E0068402C0880F991F0A94E2F7C6
:10075000822B90968C9362FD12C0A785B0E0909694
:100760002C91909781E090E0018802C0880F991F3A
:100770000A94E2F78095822390968C9310C0A78507
:10078000B0E090962C91909781E090E0018802C0B3
:10079000880F991F0A94E2F7822B90968C9363FD41
:1007A00012C0A289B0E090962C91909781E090E0E1
:1007B000048802C0880F991F0A94E2F7809582236B
:1007C00090968C9310C0A289B0E090962C9190974F
:1007D00081E090E0048802C0880F991F0A94E2F734
:1007E000822B90968C93A681B0E090964C91909736
:1007F00081E090E09C01008402C0220F331F0A9424
:10080000E2F7242B90962C93AFECB7E01197F1F719
:1008100000C00000A681B0E090962C9190970084D3
:1008200002C0880F991F0A94E2F780958223909660
:100830008C938FEC97E00197F1F700C000000895CA
:1008400061E00E94A6028FEC97E00197F1F700C0EB
:1008500000000895423031F0433031F0413029F446
:10086000605C03C06C5E01C06C5A60680E94A602A6
:100870008FEC97E00197F1F700C0000008950F9307
:100880001F93CF93DF938C01EB01642F422F0E94C3
:100890002A046881662339F02196C8010E94C400A9
:1008A00069916111FACFDF91CF911F910F91089556
:1008B0004F925F926F927F928F929F92AF92BF9270
:1008C000CF92DF92EF92FF920F931F93CF93DF931C
:1008D000CDB7DEB72F970FB6F894DEBF0FBECDBFF2
:1008E0004C016A017B01402F622F0E942A0410E014
:1008F0000F2EFAE04F2E512C612C712CF02DAA24D2
:10090000A394B12CAC0EBD1EA10EB11CC701B60143
:10091000A30192010E94500B605DF5016083C22E1D
:10092000D32EE42EF52E1F5FC114D104E104F1048F
:1009300031F7112369F01150E1E0F0E0EC0FFD1FF9
:10094000E10FF11D6081C4010E94C4001111F3CFB9
:100950008FEC97E00197F1F700C000002F960FB6DB
:10096000F894DEBF0FBECDBFDF91CF911F910F91E5
:10097000FF90EF90DF90CF90BF90AF909F908F90BF
:100980007F906F905F904F9008958F929F92AF925B
:10099000BF92EF92FF920F931F93CF93DF93CDB748
:1009A000DEB76E970FB6F894DEBF0FBECDBF7C01E9
:1009B0004A015B01402F622F0E942A0410E0882D1B
:1009C0008F708A3048F4E1E0F0E0EC0FFD1FE10F9A
:1009D000F11D805D808308C0E1E0F0E0EC0FFD1FB9
:1009E000E10FF11D895A8083689413F8B694A79497
:1009F000979487941694D1F71F5F81149104A104F2
:100A0000B104E9F6112369F01150E1E0F0E0EC0FD8
:100A1000FD1FE10FF11D6081C7010E94C40011118B
:100A2000F3CF8FEC97E00197F1F700C000006E96CE
:100A30000FB6F894DEBF0FBECDBFDF91CF911F91EF
:100A40000F91FF90EF90BF90AF909F908F9008957F
:100A5000DF92EF92FF920F931F93CF93DF937C016E
:100A6000C42FCC0FCC0FCC0FC05C062F172F0F2E2E
:100A7000F9E0DF2EF02DDC0EF801D4916C2FC701C8
:100A80000E94A602CF5F6D2FC7010E94C4000F5FB6
:100A90001F4FCD11F1CF8FEC97E00197F1F700C018
:100AA0000000DF91CF911F910F91FF90EF90DF90A9
:100AB0000895EF92FF920F931F93CF937C018B01C8
:100AC000642F422F0E942A04B801F80184918823E0
:100AD00071F0C0E0FB016491C7010E94C400CF5FC8
:100AE000B8016C0F711DFB0184918111F3CF8FEC64
:100AF00097E00197F1F700C00000CF911F910F918F
:100B0000FF90EF900895EF92FF921F93CF93DF93A2
:100B1000EC01162F8FE295E70197F1F700C0000076
:100B2000E985F0E030A181E090E0AC010B8402C0E7
:100B3000440F551F0A94E2F7242F2095232320A366
:100B4000EC85F0E030A1AC010E8402C0440F551FCB
:100B50000A94E2F7242F2095232320A3EF85F0E0C9
:100B600030A1AC01098802C0440F551F0A94E2F776
:100B7000242F2095232320A3EA89F0E030A1AC01A3
:100B80000C8802C0440F551F0A94E2F7242F2095C9
:100B9000232320A3EE81F0E030A1AC01088402C041
:100BA000440F551F0A94E2F7242F2095232320A3F6
:100BB000EA85F0E040A19C010B8402C0220F331FA4
:100BC0000A94E2F7242B20A3ED85F0E040A19C01DC
:100BD0000E8402C0220F331F0A94E2F7242B20A3B5
:100BE000E889F0E040A19C01098802C0220F331F70
:100BF0000A94E2F7242B20A3EB89F0E040A19C01AA
:100C00000C8802C0220F331F0A94E2F7242B20A382
:100C1000EF81F0E040A19C01088402C0220F331F45
:100C20000A94E2F7242B20A3E981F0E040A19C0183
:100C30000A8002C0220F331F0A94E2F7242B20A35C
:100C4000EC81F0E040A19C010D8002C0220F331F17
:100C50000A94E2F7242B20A3E985F0E040A19C014F
:100C60000B8402C0220F331F0A94E2F7242B20A327
:100C7000EC85F0E040A19C010E8402C0220F331FDE
:100C80000A94E2F7242B20A3EF85F0E030A1AC0119
:100C9000098802C0440F551F0A94E2F7242F2095BB
:100CA000232320A3EA89F0E030A1AC010C8802C024
:100CB000440F551F0A94E2F7242F2095232320A3E5
:100CC000EE81F0E040A19C01088402C0220F331F96
:100CD0000A94E2F7242B20A3E881F0E030A1AC01D4
:100CE0000A8002C0440F551F0A94E2F7242F209572
:100CF000232320A3EB81F0E030A1AC010D8002C0E2
:100D0000440F551F0A94E2F7242F2095232320A394
:100D1000EFECF7E03197F1F700C00000EE81F0E072
:100D200030A1AC01088402C0440F551F0A94E2F7B9
:100D3000242F2095232320A3EFECF7E03197F1F740
:100D400000C00000E985F0E040A19C010B8402C0D6
:100D5000220F331F0A94E2F7242B20A3EC85F0E046
:100D600040A19C010E8402C0220F331F0A94E2F7B7
:100D7000242B20A3EF85F0E030A1AC01098802C04C
:100D8000440F551F0A94E2F7242F2095232320A314
:100D9000EA89F0E030A1AC010C8802C0440F551F75
:100DA0000A94E2F7242F2095232320A3EE81F0E07C
:100DB00040A19C01088402C0220F331F0A94E2F76D
:100DC000242B20A3E881F0E030A1AC010A8002C00E
:100DD000440F551F0A94E2F7242F2095232320A3C4
:100DE000EB81F0E030A1AC010D8002C0440F551F33
:100DF0000A94E2F7242F2095232320A3EFECF7E0B9
:100E00003197F1F700C00000EE81F0E030A1AC01B5
:100E1000088402C0440F551F0A94E2F7242F20953E
:100E2000232320A3EFECF7E03197F1F700C0000097
:100E3000E985F0E030A1AC010B8402C0440F551FDE
:100E40000A94E2F7242F2095232320A3EC85F0E0D9
:100E500040A19C010E8402C0220F331F0A94E2F7C6
:100E6000242B20A3EF85F0E030A1AC01098802C05B
:100E7000440F551F0A94E2F7242F2095232320A323
:100E8000EA89F0E030A1AC010C8802C0440F551F84
:100E90000A94E2F7242F2095232320A3EE81F0E08B
:100EA00040A19C01088402C0220F331F0A94E2F77C
:100EB000242B20A3E881F0E030A1AC010A8002C01D
:100EC000440F551F0A94E2F7242F2095232320A3D3
:100ED000EB81F0E030A1AC010D8002C0440F551F42
:100EE0000A94E2F7242F2095232320A3EFECF7E0C8
:100EF0003197F1F700C00000EE81F0E020A10884F6
:100F000002C0880F991F0A94E2F78095822380A37C
:100F10008FEC97E00197F1F700C0000068E2CE0186
:100F20000E94A6026CE0CE010E94A602123099F443
:100F30000F2EF4E7EF2EF0E0FF2EF02D10E0412F02
:100F4000B701CE010E9428051F5F98E0E90EF11C51
:100F50001830A9F714C0113091F40F2EF4EBEF2ED6
:100F6000F0E0FF2EF02D10E0412FB701CE010E94DE
:100F700028051F5FE8E0EE0EF11C1830A9F7CE013E
:100F80000E94200420E040E063E670E0CE010E9471
:100F90005905FFEF29E688E1F15020408040E1F754
:100FA00000C00000DF91CF911F91FF90EF90089556
:100FB0009F92AF92BF92CF92DF92EF92FF920F93E8
:100FC0001F93CF93DF936C01D62FC42FB22E602FC7
:100FD0004E2D0E942A048B2D90E09C01220F331F7E
:100FE000820F931F9C01220F331FD29FC001D39FFA
:100FF000900D11246C2F70E00E943C0B462FE62EC2
:10100000F72EBB2079F1262F372FABEABAEA0E94E0
:10101000780B96958795969587959C01220F331F9F
:10102000820F931F880F991FC0E0D0E010E00F2EB1
:10103000F5E0AF2EF02D912C042F081BCE01059664
:10104000E816F90628F4EC16FD0620F0602F03C020
:101050006A2D01C0692DC6010E94C4001F5F26963B
:10106000B112ECCF8FEC97E00197F1F700C00000D0
:10107000DF91CF911F910F91FF90EF90DF90CF9074
:10108000BF90AF909F900895FF920F931F93CF93BF
:10109000DF936A3008F051C1D22FF42EC62F8C0195
:1010A000422F6F2D0E942A04C1111FC06FEFC8018B
:1010B0000E94C40060E0C8010E94C4006FEFC80134
:1010C0000E94C40041E04D0F6F2DC8010E942A0408
:1010D0006FEFC8010E94C40061E0C8010E94C40013
:1010E0006FEFC8010E94C40028C1C130F9F460E06C
:1010F000C8010E94C4006FEFC8010E94C40060E2F2
:10110000C8010E94C40041E04D0F6F2DC8010E942C
:101110002A0461E0C8010E94C4006FEFC8010E9468
:10112000C40061E0C8010E94C40007C1C230F9F4E4
:1011300060E0C8010E94C40062E0C8010E94C400CF
:101140006FEFC8010E94C40041E04D0F6F2DC80130
:101150000E942A046FEFC8010E94C40061E0C80128
:101160000E94C40061E0C8010E94C400E6C0C33010
:10117000F9F460E0C8010E94C40062E0C8010E9466
:10118000C4006FEFC8010E94C40041E04D0F6F2DF5
:10119000C8010E942A0461E0C8010E94C40061E005
:1011A000C8010E94C4006FEFC8010E94C400C5C0FE
:1011B000C430F9F46FEFC8010E94C40061E0C801B7
:1011C0000E94C4006FEFC8010E94C40041E04D0FAF
:1011D0006F2DC8010E942A0460E2C8010E94C40069
:1011E00060E2C8010E94C4006FEFC8010E94C40001
:1011F000A4C0C530F9F46FEFC8010E94C40062E0DA
:10120000C8010E94C40060E0C8010E94C40041E01F
:101210004D0F6F2DC8010E942A0461E0C8010E9491
:10122000C40061E0C8010E94C4006FEFC8010E94C1
:10123000C40083C0C630F9F46FEFC8010E94C40037
:1012400062E0C8010E94C40060E0C8010E94C400BE
:1012500041E04D0F6F2DC8010E942A046FEFC801B5
:101260000E94C40061E0C8010E94C4006FEFC80181
:101270000E94C40062C0C730F9F460E0C8010E9457
:10128000C40060E0C8010E94C4006FEFC8010E9462
:10129000C40041E04D0F6F2DC8010E942A0460E296
:1012A000C8010E94C40060E2C8010E94C4006FEF40
:1012B000C8010E94C40041C0C830F9F46FEFC801F2
:1012C0000E94C40062E0C8010E94C4006FEFC80120
:1012D0000E94C40041E04D0F6F2DC8010E942A04F6
:1012E0006FEFC8010E94C40061E0C8010E94C40001
:1012F0006FEFC8010E94C40020C0C930F1F46FEF45
:10130000C8010E94C40062E0C8010E94C4006FEFDF
:10131000C8010E94C40041E04D0F6F2DC8010E941A
:101320002A0461E0C8010E94C40061E0C8010E9473
:10133000C4006FEFC8010E94C400DF91CF911F91DC
:101340000F91FF9008954F925F926F927F92BF929C
:10135000CF92DF92EF92FF920F931F93CF93DF9381
:10136000CDB7DEB72F970FB6F894DEBF0FBECDBF57
:101370006C01CB01BA01B22E10E00F2EFAE04F2E15
:10138000512C612C712CF02DEE24E394F12CEC0EF9
:10139000FD1EE10EF11CA30192010E94500BF7010A
:1013A0006083622F732F842F952F1F5F6115710546
:1013B0008105910549F7112389F01150E1E0F0E032
:1013C000EC0FFD1FE10FF11D202F4B2D6081C60199
:1013D0000E944408F4E0BF0E1111EFCF8FEC97E0AC
:1013E0000197F1F700C000002F960FB6F894DEBF0A
:1013F0000FBECDBFDF91CF911F910F91FF90EF9066
:10140000DF90CF90BF907F906F905F904F90089546
:10141000EF920F93CF932FEF80E792E0215080401F
:101420009040E1F700C00000EAE8F0E09BE1908323
:101430008AE1818312829383848321E025839683CA
:10144000878322E020879187828723E02387948700
:10145000858724E026879787808B25E0218B928BD8
:10146000838B86E0848B61E0CF010E9483058AE84C
:1014700090E00E94200420E040E064E570E08AE80B
:1014800090E00E94590541E06CE08AE890E00E94FB
:101490002A0466E08AE890E00E94C40041E060E02F
:1014A0008AE890E00E942A0467E08AE890E00E94BF
:1014B000C400C0E0EE24E39401E02BE04EE16C2F89
:1014C0008AE890E00E94D8072FEF80E792E0215051
:1014D00080409040E1F700C00000CF5FCF3151F76E
:1014E0008AE890E00E94200462E08AE890E00E948E
:1014F000830521E04CE050E060E070E08AE890E095
:101500000E94A3092AE04EE150E060E070E08AE822
:1015100090E00E94A30941E068E08AE890E00E9420
:101520002A0463E08AE890E00E94C40064E08AE84C
:1015300090E00E94C40042E068E08AE890E00E94E7
:101540002A0463E08AE890E00E94C40064E08AE82C
:1015500090E00E94C4002FEF83ED90E32150804083
:101560009040E1F700C00000CF910F91EF900895F7
:10157000CF93DF9300D01F92CDB7DEB78AE5898382
:1015800083E38A8380E58B830E94080A8AE890E0DF
:101590000E94200420E040E060E670E08AE890E0ED
:1015A0000E943F042FEF89E698E12150804090404F
:1015B000E1F700C0000043E0BE016F5F7F4F8AE8A3
:1015C00090E00E947E022FEF89E698E12150804052
:1015D0009040E1F700C000008AE890E00E942004FB
:1015E00020E040E06FE670E08AE890E00E943F046F
:1015F00000E02EE04BE050E060E070E08AE890E030
:101600000E94580421E040E06AE770E08AE890E038
:101610000E943F0401E02EE04BE050E060E070E00B
:101620008AE890E00E94C5042FEF83ED90E32150FB
:1016300080409040E1F700C0000010E08AE890E0B0
:101640000E942004412F50E060E070E000E024E0C0
:101650008AE890E00E94A3092FEF82E597E02150ED
:1016600080409040E1F700C000001F5FE7CF8AE8AC
:1016700090E00E94A500089597FB072E16F40094B1
:1016800007D077FD09D00E94870B07FC05D03EF4F8
:10169000909581959F4F0895709561957F4F08951E
:1016A000A1E21A2EAA1BBB1BFD010DC0AA1FBB1F66
:1016B000EE1FFF1FA217B307E407F50720F0A21BD8
:1016C000B30BE40BF50B661F771F881F991F1A9445
:1016D00069F760957095809590959B01AC01BD016F
:1016E000CF010895EE0FFF1F0590F491E02D0994AE
:1016F000A29FB001B39FC001A39F700D811D112453
:10170000911DB29F700D811D1124911D0895AA1B7A
:10171000BB1B51E107C0AA1FBB1FA617B70710F0DC
:10172000A61BB70B881F991F5A95A9F7809590950E
:0A173000BC01CD010895F894FFCF2D
:10173A0048656C6C6F20576F72642021202000442A
:10174A006563696D616C203D200048657861646558
:0A175A0063696D616C203D20000002
:00000001FF
